:100000000C942A000C9447000C9447000C94470071
:100010000C9447000C9447000C9447000C94470044
:100020000C9447000C9447000C9447000C94470034
:100030000C9447000C9447000C9447000C94470024
:100040000C9447000C9447000C9447000C94470014
:100050000C94470011241FBECFE5D4E0DEBFCDBF16
:1000600010E0A0E6B0E0E6EFF2E002C005900D92ED
:10007000AA37B107D9F710E0AAE7B0E001C01D9296
:10008000AA37B107E1F70E94A8000C9479010C94FB
:100090000000282F207F22BB929A40EA5FE0FA01FD
:1000A0003197F1F722B3207F22BBFA013197F1F7A4
:1000B00090E024E0880F991F2A95E1F782BB929A7D
:1000C000CA010197F1F782B3807F82BBCA01019711
:1000D000F1F70895282F207F22BB22B3256022BB91
:1000E00040EA5FE0FA013197F1F722B3217F22BBAA
:1000F000FA013197F1F790E034E0880F991F3A95B3
:10010000E1F782BB82B3856082BBCA010197F1F738
:1001100082B3817F82BBCA010197F1F7089582E023
:100120000E94490088E20E9449008CE00E94490038
:1001300086E00E9449000895CF93DF93EC0102C04E
:100140000E946A0089918823D9F7DF91CF910895A1
:100150002F923F924F925F926F927F928F929F92D7
:10016000AF92BF92CF92DF92EF92FF920F931F93C5
:10017000CF93DF938FEF81BB0E948F0080E690E0EA
:100180000E949C0085EC0E944900882499247AE70B
:10019000672E70E0772E91C082E08816910449F5B1
:1001A000E4E0CE16D10429F585EC0E94490080E3F5
:1001B0000E946A0086EC0E94490080E30E946A0067
:1001C00088EC0E94490080E30E946A0089EC0E944A
:1001D000490080E30E946A008BEC0E94490080E3A2
:1001E0000E946A008CEC0E94490080E30E946A0031
:1001F0006DC085EC0E944900F10180810E946A0077
:1002000086EC0E944900F20180810E946A008AE324
:100210000E946A00F50180810E946A00F7018081D6
:100220000E946A008AE30E946A00F80180810E94AD
:100230006A0088810E946A0080E197E2E0E9F1E0CB
:100240003197F1F70197D1F721966C167D0609F0E9
:10025000A3CF0F5F1F4FC30104978017910719F0B9
:10026000C0E7D0E099CF0894E11CF11C6E147F0424
:1002700019F000E710E0F4CF0894A11CB11C0A1596
:100280001B0529F060E7E62E60E0F62EF2CF089419
:10029000C11CD11CFAE0CF16D10441F050E7A52EC5
:1002A00050E0B52E25014C0C5D1CECCF0894811C50
:1002B000911C83E08816910449F0CC24DD2440E7AA
:1002C000242E40E0342E280C391CE8CFDF91CF914A
:1002D0001F910F91FF90EF90DF90CF90BF90AF9064
:1002E0009F908F907F906F905F904F903F902F9056
:0602F0000895F894FFCF11
:1002F60020204449474954414C20434C4F434B002E
:0A03060030313233343536373839E0
:00000001FF
